{
  "contractName": "SimpleStorage",
  "abi": [
    {
      "constant": false,
      "inputs": [
        {
          "name": "s",
          "type": "string"
        },
        {
          "name": "t",
          "type": "string"
        }
      ],
      "name": "setWord",
      "outputs": [],
      "payable": false,
      "stateMutability": "nonpayable",
      "type": "function"
    },
    {
      "constant": true,
      "inputs": [
        {
          "name": "random",
          "type": "uint256"
        }
      ],
      "name": "getRandomWord",
      "outputs": [
        {
          "name": "",
          "type": "uint256"
        },
        {
          "name": "",
          "type": "string"
        },
        {
          "name": "",
          "type": "address"
        },
        {
          "name": "",
          "type": "string"
        }
      ],
      "payable": false,
      "stateMutability": "view",
      "type": "function"
    }
  ],
  "bytecode": "0x6060604052341561000f57600080fd5b6106cf8061001e6000396000f30060606040526004361061004c576000357c0100000000000000000000000000000000000000000000000000000000900463ffffffff1680638c595a9514610051578063cc76b911146100f1575b600080fd5b341561005c57600080fd5b6100ef600480803590602001908201803590602001908080601f0160208091040260200160405190810160405280939291908181526020018383808284378201915050505050509190803590602001908201803590602001908080601f01602080910402602001604051908101604052809392919081815260200183838082843782019150505050505091905050610233565b005b34156100fc57600080fd5b6101126004808035906020019091905050610316565b60405180858152602001806020018473ffffffffffffffffffffffffffffffffffffffff1673ffffffffffffffffffffffffffffffffffffffff16815260200180602001838103835286818151815260200191508051906020019080838360005b8381101561018e578082015181840152602081019050610173565b50505050905090810190601f1680156101bb5780820380516001836020036101000a031916815260200191505b50838103825284818151815260200191508051906020019080838360005b838110156101f45780820151818401526020810190506101d9565b50505050905090810190601f1680156102215780820380516001836020036101000a031916815260200191505b50965050505050505060405180910390f35b60008054806001018281610247919061050a565b916000526020600020906003020160006060604051908101604052808681526020013373ffffffffffffffffffffffffffffffffffffffff16815260200185815250909190915060008201518160000190805190602001906102aa92919061053c565b5060208201518160010160006101000a81548173ffffffffffffffffffffffffffffffffffffffff021916908373ffffffffffffffffffffffffffffffffffffffff160217905550604082015181600201908051906020019061030e92919061053c565b505050505050565b60006103206105bc565b600061032a6105bc565b600080600080549050141561036f5760003381915060206040519081016040528060008152509060206040519081016040528060008152509450945094509450610502565b60008681548110151561037e57fe5b90600052602060002090600302019050600080549050816000018260010160009054906101000a900473ffffffffffffffffffffffffffffffffffffffff1683600201828054600181600116156101000203166002900480601f0160208091040260200160405190810160405280929190818152602001828054600181600116156101000203166002900480156104565780601f1061042b57610100808354040283529160200191610456565b820191906000526020600020905b81548152906001019060200180831161043957829003601f168201915b50505050509250808054600181600116156101000203166002900480601f0160208091040260200160405190810160405280929190818152602001828054600181600116156101000203166002900480156104f25780601f106104c7576101008083540402835291602001916104f2565b820191906000526020600020905b8154815290600101906020018083116104d557829003601f168201915b5050505050905094509450945094505b509193509193565b8154818355818115116105375760030281600302836000526020600020918201910161053691906105d0565b5b505050565b828054600181600116156101000203166002900490600052602060002090601f016020900481019282601f1061057d57805160ff19168380011785556105ab565b828001600101855582156105ab579182015b828111156105aa57825182559160200191906001019061058f565b5b5090506105b89190610636565b5090565b602060405190810160405280600081525090565b61063391905b8082111561062f57600080820160006105ef919061065b565b6001820160006101000a81549073ffffffffffffffffffffffffffffffffffffffff0219169055600282016000610626919061065b565b506003016105d6565b5090565b90565b61065891905b8082111561065457600081600090555060010161063c565b5090565b90565b50805460018160011615610100020316600290046000825580601f1061068157506106a0565b601f01602090049060005260206000209081019061069f9190610636565b5b505600a165627a7a7230582047520345b15be9d1e0a1dc6103d115c26989b339a45eb4d75e16eb1fa1defa950029",
  "source": "pragma solidity ^0.4.19;\n\ncontract SimpleStorage {\n\n    struct Message {\n        string word; // 留言\n        address from; // 留言者地址\n        string timestamp ; // 留言unix时间戳\n    }\n\n    Message[] private wordArr;\n\n    function setWord(string s, string t) public {\n        wordArr.push(Message({\n            word: s,\n            from: msg.sender,\n            timestamp: t\n        }));\n    }\n\n    function getRandomWord(uint random) public view returns (uint, string, address, string) {\n        if(wordArr.length==0){\n            return (0, \"\", msg.sender, \"\");\n        }else{\n            Message storage result = wordArr[random];\n            return (wordArr.length, result.word, result.from, result.timestamp);\n        }\n        \n    }\n\n}\n",
  "sourcePath": "/Users/ludis/Mac/projects/Dapp/word/contracts/SimpleStorage.sol",
  "compiler": {
    "name": "solc",
    "version": "0.4.19+commit.c4cbbb05.Emscripten.clang"
  },
  "schemaVersion": "1.0.1",
  "updatedAt": "2018-03-04T02:25:44.953Z"
}